:1000000012C02CC02BC02AC029C028C027C026C0BF
:1000100025C024C023C022C021C020C01FC01EC0D4
:100020001DC01CC01BC011241FBECFE5D4E0DEBF25
:10003000CDBF10E0A0E6B0E0ECE7F1E002C0059033
:100040000D92A036B107D9F710E0A0E6B0E001C0EC
:100050001D92A036B107E1F720D08EC0D1CF14BADF
:100060008EE181BB8FEF87BB81EA8FBD84E08EBDBF
:100070001BBC1ABC19BC18BC12BA18BA1BBC1ABCDF
:1000800019BC18BCC0982FE088E190E00FB6F89436
:10009000A89581BD0FBE21BD0895CF92DF92EF924A
:1000A000FF920F931F93DBDFA4E6B0E0E0E5F0E002
:1000B0006CE370E042E350E02EE130E000E1C02E5E
:1000C00010E2D12E92E1E92E8CE0F82E0AE014E144
:1000D00083B390E08C7390709595879595958795EF
:1000E000882341F412BA18BA1BBC1ABC19BC18BC3C
:1000F000C098EECF813011F412BB3CC0823011F4B5
:1001000002BB38C0833011F4F2BA34C0843011F429
:10011000E2BA30C0853011F4D8BA2CC0863011F460
:10012000C8BA28C0873011F418BA24C0883081F2C8
:10013000893071F28A3061F28B3019F439BD28BDF3
:1001400015C08C3019F45BBD4ABD09C08D3019F45F
:100150007BBD6ABD04C08E3039F4FBBDEABD8AB5F3
:100160009BB599BD88BD06C0B9BDA8BD88B599B578
:0C0170009BBD8ABDC09AACCFF894FFCFB5
:00000001FF
