:1000000012C02BC02AC029C028C027C026C025C0C6
:1000100024C023C022C021C020C01FC01EC01DC0DC
:100020001CC01BC01AC011241FBECFE5D4E0DEBF28
:10003000CDBF10E0A0E6B0E0ECE0F1E002C005903A
:100040000D92A036B107D9F710E0A0E6B0E001C0EC
:100050001D92A036B107E1F70FC0D2CF349887B90F
:100060003D9A379A86B1866086B9369A349BFECF20
:1000700016B885B199270895CFE5D4E0DEBFCDBF8E
:100080008FEF87BB81BB14BA87E088BB12BA10E040
:10009000012FC0E0D0E0802FE1DF823848F081E01E
:1000A00090E00C2E02C0880F991F0A94E2F7182BDB
:1000B0000F5F2196063078F31F73812F9927809563
:1000C000909584309105C9F08530910534F48130E4
:1000D000910579F0029779F0DACF8031910589F0B6
:1000E000813191051CF4089751F0D1CF809759F0D8
:1000F000CECF81E009C082E007C084E005C088E07F
:0C01000003C085E001C08AE082BBC1CFD3
:00000001FF
