:100000001AC034C033C032C031C030C02FC02EC07F
:100010002DC02CC02BC02AC029C028C027C026C094
:1000200025C024C023C0A4C091C08CC09CC095C072
:100030009FC0A1C09DC011241FBECFE5D4E0DEBF8C
:10004000CDBF10E0A0E6B0E0E8E8F1E002C0059026
:100050000D92A236B107D9F710E0A2E6B0E001C0D8
:100060001D92AC36B107E1F70FD08CC0C9CF97B164
:10007000907F97B997B1982B97B9379A369A349B56
:10008000FECF16B885B108951F93CF93DF938FE00D
:1000900081BB87BB80EF88BB14BA34983E9A3D9AE7
:1000A00086B1836086B98FEF90E09BBD8ABD99BD14
:1000B00088BD81EA8FBD81E08EBD84E680936900B2
:1000C000809368009091630049E02CE330E0CDE23A
:1000D000D0E01AE0A5E2B0E064E370E055E087B15B
:1000E000807F87B987B187B9379A369A349BFECF1C
:1000F00016B885B1E0E0853608F0E1E087B1807F91
:1001000087B9389A379A369A349BFECF16B885B19C
:10011000853608F0E26087B1807F87B9399A379ACF
:10012000369A349BFECF16B885B1853608F0E46068
:100130008E2F80958770981791F2E82FF0E0ED5E92
:10014000FF4F099442BB3BBD2ABD10C0C09A52BBB1
:100150007BBD6ABDB9BDA8BD0CC012BBBBBDAABDED
:1001600079BD68BD05C042BBDBBDCABD39BD28BD78
:10017000C09A982FB4CF42BB3BBD2ABDD9BDC8BDE4
:08018000C098F7CFF894FFCFFF
:02018800050070
:00000001FF
