:100000002EC048C056C045C044C043C042C041C0D5
:1000100040C03FC03EC03DC03CC03BC03AC039C0FC
:1000200038C037C036C0A3C0C3C0A1C093C0E7C0AA
:10003000BFC09DC0D0C0E3C0E2C0E1C0CCC0DFC043
:1000400089C0DDC0A6C0DBC0DAC0D9C0D8C0D7C067
:10005000D6C0D5C09EC0D3C0D2C0D1C09AC01124D2
:100060001FBECFE5D4E0DEBFCDBF10E0A0E6B0E01C
:10007000EAEFF2E002C005900D92A236B107D9F77F
:1000800010E0A2E6B0E001C01D92A836B107E1F78A
:100090001FC0B6CF1F920F920FB60F92112418BA3D
:1000A0001BBC1ABC19BC18BC0F900FBE0F901F9040
:1000B00018951F920F920FB60F92112418BA1BBCFD
:1000C0001ABC19BC18BC0F900FBE0F901F9018954A
:1000D000CFE5D4E0DEBFCDBF80EE84BB8FE087BB31
:1000E0008FEF90E09BBD8ABD99BD88BD81EA8FBD31
:1000F00081E08EBD86EE8093640084E68093670085
:10010000809366008BB782608BBF8BB780688BBF94
:1001100085B785BF85B785BF85B785BF85B785BFDF
:10012000789423B32F71209365008AB59BB5892BF2
:1001300021F0809162008217A1F3822F9927AA27CC
:10014000BB27FC013197EC31F10508F058C0ED5E9A
:10015000FF4F09941092630080916000992763E03B
:10016000880F991F6A95E1F78093670046C081E088
:10017000809363002091600087E0289FC0011124D4
:1001800080936700822F9927880F991F880F991FE6
:1001900034C088E08093630020916000822F99270B
:1001A000880F991F880F991F8093670087E00FC001
:1001B00081E08093630020916000822F992733E0D3
:1001C000880F991F3A95E1F78093670083E0289F95
:1001D000C001112412C088E0809363002091600068
:1001E00083E0289FC001112480936700822F992704
:1001F00023E0880F991F2A95E1F78093660080918C
:100200006500809362008091630088BB882391F42D
:100210002091640080916600289FC001112464E64B
:1002200070E044D07BBD6ABD80916700289FC0010B
:10023000112418C08130D9F4909166008FEF989FF7
:10024000C001112464E670E031D08FEF90E0861B8E
:10025000970B9BBD8ABD9091640080916700989F29
:10026000C001112464E670E021D0CB011CC08830AD
:1002700009F057CF9091640080916600989FC0016B
:10028000112464E670E012D07BBD6ABD90916700D6
:100290008FEF989FC001112464E670E007D08FEFC4
:1002A00090E0861B970B99BD88BD3BCF97FB092E2D
:1002B00007260AD077FD04D00CD006D000201AF40F
:1002C000709561957F4F0895F6F7909581959F4FB2
:1002D0000895AA1BBB1B51E107C0AA1FBB1FA6178D
:1002E000B70710F0A61BB70B881F991F5A95A9F7DF
:0A02F00080959095BC01CD010895A2
:0202FA000500FD
:00000001FF
