:1000000031C04BC04AC049C048C047C046C045C0C7
:1000100044C043C042C041C040C03FC03EC03DC0DC
:100020003CC03BC03AC09CC1B8C09AC1B6C0EDC18B
:10003000C2C073C1B2C0E9C1E8C1E7C1CCC0E5C16B
:10004000A6C16BC14BC1E1C1E0C1DFC1DEC1DDC1F1
:10005000DCC1DBC143C1D9C1D8C1D7C11CC1D5C125
:100060001AC1D0C011241FBECFE5D4E0DEBFCDBF82
:1000700010E0A0E6B0E0EEE5F4E002C005900D92DD
:10008000A036B107D9F710E0A0E6B0E001C01D929C
:10009000A236B107E1F721D0E1C1B2CF97B1907F8D
:1000A00097B997B1982B97B9379A369A349BFECF68
:1000B00016B885B19927089534983E9A3D9A86B12D
:1000C000836086B98FEF90E099BD88BD9BBD8ABDE6
:1000D00081EA8FBD84E08EBD0895CFE5D4E0DEBF18
:1000E000CDBF8FE081BB87BB80EF88BB14BAE4DF54
:1000F00018BA86EE80936000BB24EE24FF24C0E093
:10010000D0E0CC24DD248824AA24992400E080E0D7
:10011000C5DF10E0813808F011E081E0BFDF853BEA
:1001200008F0126082E0BADF813808F0146083E0E2
:10013000B5DF813808F0186084E0B0DF853B08F057
:100140001061412F4F714093610062E0C616D104E7
:1001500009F42196CE3FD10528F00894E11CF11C4A
:10016000C0E0D0E073E0C716D10441F498B3882D05
:10017000880F880F892B88BBCC24DD24B41639F274
:10018000842F9927AA27BB27FC013197EF31F1056E
:1001900008F03BC1ED5EFF4F09948AE082BB90916D
:1001A000600080E5989FC001112464E670E02FD1C3
:1001B0007BBD6ABD28C18AE082BB209160003327E5
:1001C0008BE490E0BC01269FC001279F900D369FD5
:1001D000900D1124AFC08AE082BB209160003327CC
:1001E00080E590E0BC01269FC001279F900D369FBF
:1001F000900D112464E670E00AD17BBD6ABD8BE4EA
:1002000090E082C0C114D10421F4E2E0CE2ED12CC2
:100210002DC072E0C716D10449F58A2D992720E038
:1002200030E0E114F10411F421E030E0281739073F
:100230001CF4209769F003C0E114F10449F081E057
:1002400090E0092C02C0880F991F0A94E2F7882ACF
:10025000E114F10411F4AC2E01C0AE2C9394EE2401
:10026000FF24C0E0D0E073E0C72ED12C8AE082BB2F
:100270009091600080E5989FC001112464E670E0D1
:10028000C6D07BBD6ABD79BD68BD80E593EC0197A2
:10029000F1F70CE0BAC086E082BB20916000332702
:1002A00080E590E0BC01269FC001279F900D369FFE
:1002B000900D112464E670E0AAD07BBD6ABDC9012F
:1002C00066E0880F991F6A95E1F7820F931F64E635
:1002D00070E09DD079BD68BD09E097C086E082BB23
:1002E00020916000332786E490E0BC01269FC00186
:1002F000279F900D369F900D112464E670E087D003
:100300007BBD6ABD80E590E0BC01269FC001279FB0
:10031000900D369F900D1124DACF89E082BB209199
:1003200060003327C90156E0880F991F5A95E1F7FD
:10033000820F931F64E670E06AD07BBD6ABD80E5E2
:1003400090E0BC01269FC001279F900D369F900D25
:10035000112464E670E05BD079BD68BD03E055C050
:1003600089E082BB20916000332780E590E0BC01EA
:10037000269FC001279F900D369F900D112464E6A3
:1003800070E045D07BBD6ABD86E490E0DACF0330F3
:10039000B9F489E082BB20916000332780E590E0CA
:1003A000BC01269FC001279F900D369F900D112400
:1003B00064E670E02CD07BBD6ABD86E490E018C096
:1003C000093019F586E082BB20916000332786E46E
:1003D00090E0BC01269FC001279F900D369F900D95
:1003E000112464E670E013D07BBD6ABD80E590E027
:1003F000BC01269FC001279F900D369F900D1124B0
:1004000064E670E004D079BD68BDB42E80CE97FB61
:10041000092E07260AD077FD04D00CD006D0002084
:100420001AF4709561957F4F0895F6F79095819530
:100430009F4F0895AA1BBB1B51E107C0AA1FBB1FFA
:10044000A617B70710F0A61BB70B881F991F5A9560
:0E045000A9F780959095BC01CD010895FFCFCE
:00000001FF
