:1000000012C02BC02AC029C028C027C026C025C0C6
:1000100024C023C022C021C020C01FC01EC01DC0DC
:100020001CC01BC01AC011241FBECFE5D4E0DEBF28
:10003000CDBF10E0A0E6B0E0E6E6F3E002C0059038
:100040000D92A236B107D9F710E0A2E6B0E001C0E8
:100050001D92A636B107E1F701C0D2CFCBE5D4E0BF
:10006000DEBFCDBF1A8288EF809331008FE080938E
:1000700037008FEF90E090934B0080934A008FEF12
:1000800090E0909349008093480081EA80934F006C
:1000900081E080934E0086EE8093630084E6809337
:1000A000650084E6809364008091300080958770BD
:1000B00089839A818981981709F4F6CF8981282F3D
:1000C00033273C832B834B815C814330510509F4FA
:1000D00068C08B819C81843091057CF42B813C81AC
:1000E00021303105A1F14B815C8142305105E4F4AE
:1000F0008B819C810097C1F07DC02B813C81263093
:10010000310509F463C04B815C814730510534F4FB
:100110008B819C818430910579F16CC02B813C816D
:100120002730310509F066C010926200909160009E
:1001300087E0989FC0011124809365009091600032
:1001400087E0989FC00111248093640053C081E030
:10015000809362009091600086E0989FC001112416
:1001600080936500809160009927880F991F880F00
:10017000991F809364003EC088E080936200809164
:1001800060009927880F991F880F991F8093650039
:100190009091600086E0989FC001112480936400D4
:1001A00029C081E0809362009091600086E0989F72
:1001B000C001112480936500809160009927880F09
:1001C000991F880F991F8093640014C088E0809362
:1001D00062009091600086E0989FC0011124809396
:1001E0006500809160009927880F991F880F991FDB
:1001F0008093640089818A838091620080933800B3
:1002000080916200882309F59091630080916400D9
:10021000989FC001112424E630E0B9017DD0CB01C4
:1002200090934B0080934A00909163008091650009
:10023000989FC001112424E630E0B9016DD0CB01B4
:1002400090934900809348002FCF809162008130C5
:1002500079F59091630080916400989F900111243A
:100260008FEF90E0289FA001299F500D389F500DDF
:100270001124CA0124E630E0B9014ED09B018FEF72
:1002800090E0821B930B90934B0080934A009091D7
:10029000630080916500989FC001112424E630E03E
:1002A000B9013AD0CB019093490080934800FCCE2D
:1002B00080916200883009F0F7CE909163008091C0
:1002C0006400989FC001112424E630E0B90124D0D5
:1002D000CB0190934B0080934A00909163008091F2
:1002E0006500989F900111248FEF90E0289FA00156
:1002F000299F500D389F500D1124CA0124E630E08B
:10030000B9010AD09B018FEF90E0821B930B909371
:10031000490080934800C8CE97FB092E07260AD0D3
:1003200077FD04D00CD006D000201AF470956195AA
:100330007F4F0895F6F7909581959F4F0895AA1BDA
:10034000BB1B51E107C0AA1FBB1FA617B70710F0C0
:10035000A61BB70B881F991F5A95A9F780959095F2
:06036000BC01CD0108956F
:020366000A008B
:00000001FF
