:1000000032C04CC04BC04AC049C048C047C046C0BF
:1000100045C044C043C042C041C040C03FC03EC0D4
:100020003DC03CC03BC0E1C0EEC0D9C0ECC0CAC0BE
:10003000A5C0D5C0F9C0CDC0F7C0A0C0F5C0C9C02B
:100040009DC0C0C09BC0E5C0EFC0EEC0EDC096C073
:10005000EBC094C0E9C0DDC0E7C0E6C0E5C0DDC0CC
:10006000E3C08CC0CCC011241FBECFE5D4E0DEBFFE
:10007000CDBF10E0A0E6B0E0EAE3F2E002C00590F8
:100080000D92A036B107D9F710E0A0E6B0E001C0AC
:100090001D92A336B107E1F720D0CDC0B1CF97B103
:1000A000907F97B997B1982B97B9379A369A349B26
:1000B000FECF16B885B1089534983E9A3D9A86B120
:1000C000836086B98FEF90E099BD88BD9BBD8ABDE6
:1000D00081EA8FBD84E08EBD08956F927F928F92EA
:1000E0009F92AF92BF92CF92DF92FF920F931F9396
:1000F000CF93DF938FE081BB87BB80EF88BB14BABF
:1001000034983E9A3D9A86B1836086B98FEF90E02D
:1001100099BD88BD9BBD8ABD81EA8FBD84E08EBD3F
:1001200080E49CE9FC013197F1F7FC013197F1F78C
:10013000FC013197F1F7FC013197F1F70197F1F7E5
:1001400018BA8FEF8093600040E051E0652E712C6B
:1001500019E0A2EBB0E036E0F32E26E6822E912CD9
:100160009FE7C92ED12C89E9A82EB12CCFEFD0E082
:100170000AE06CEC70E050E020E030E087B1807F76
:1001800087B987B1822B87B9379A369A349BFECFCD
:1001900016B885B1853640F0C301022E02C0880F23
:1001A000991F0A94E2F7582B2F5F3F4F25303105F6
:1001B00029F7E52FEF7120E030E050E0F0E0ED5E50
:1001C000FF4F099402BB7BBD6ABD79BD68BD40E0AD
:1001D000D2CF02BB7BBD6ABD79BD68BD23C002BB67
:1001E0007BBD6ABD79BD68BD24C0493011F012BB2A
:1001F00001C0F2BADBBDCABDD9BDC8BDBCCF12BB00
:10020000BBBCAABC14C012BBBBBDAABDD9BCC8BC78
:1002100010C0F2BADBBCCABC03C0F2BA9BBC8ABC39
:10022000B9BDA8BD49E0A7CF12BBBBBDAABDB9BD32
:0A023000A8BD43E0A0CFF894FFCF73
:00000001FF
