:1000000012C02BC02AC029C028C027C026C025C0C6
:1000100024C023C022C021C020C01FC01EC01DC0DC
:100020001CC01BC01AC011241FBECFE5D4E0DEBF28
:10003000CDBF10E0A0E6B0E0E4E9F0E002C005903A
:100040000D92A036B107D9F710E0A0E6B0E001C0EC
:100050001D92A036B107E1F710C0D2CF89B988E16F
:100060008AB98EE880BD08955D9BFECF8CB9089556
:100070005F9BFECF8CB199270895CFE5D4E0DEBF1A
:10008000CDBF1FEF11BB8FECE9DF12BB80E090E02A
:0400900000C0FFCFDE
:00000001FF
