:1000000012C02CC02BC02AC029C028C027C026C0BF
:1000100025C024C023C022C021C020C01FC01EC0D4
:100020001DC01CC01BC011241FBECFE5D4E0DEBF25
:10003000CDBF10E0A0E6B0E0E4E0F1E002C0059042
:100040000D92A036B107D9F710E0A0E6B0E001C0EC
:100050001D92A336B107E1F721D053C0D1CF97B19C
:10006000907F97B997B1982B97B9379A369A349B66
:10007000FECF16B885B19927089534983E9A3D9AD7
:1000800086B1836086B98FEF90E099BD88BD9BBD36
:100090008ABD81EA8FBD84E08EBD0895CFE5D4E0AE
:1000A000DEBFCDBF8FE081BB87BB80EF88BB14BABA
:1000B000E4DF80E49CE9FC013197F1F7FC01319722
:1000C000F1F7FC013197F1F7FC013197F1F7019756
:1000D000F1F718BA8BE48093600080E0C0DF81E024
:1000E000BEDF82E0BCDF83E0BADF84E0B8DF8AE015
:1000F00082BB8091600099279BBD8ABD99BD88BD58
:04010000ECCFFFCF72
:00000001FF
