:1000000012C02CC02BC02AC029C028C027C026C0BF
:1000100025C024C023C022C021C020C01FC01EC0D4
:100020001DC01CC01BC011241FBECFE5D4E0DEBF25
:10003000CDBF10E0A0E6B0E0E0E3F1E002C0059043
:100040000D92A036B107D9F710E0A0E6B0E001C0EC
:100050001D92A036B107E1F721D069C0D1CF8FE062
:1000600081BB14BA87E087BBC59A089586B18360C7
:1000700086B93E9A3D9A379A089581EA8FBD85E008
:100080008EBD089597B1907F97B997B1982B97B986
:10009000369A349BFECF85B199270895CFE5D4E0F9
:1000A000DEBFCDBFDCDFE2DF81EA8FBD85E08EBD44
:1000B000B59B02C0C09A01C0C09885E0E3DF182F4D
:1000C00080E0E0DF082F81E0DDDF873910F092E08B
:1000D00001C090E080E0073908F081E0892B813091
:1000E00069F0813028F0823089F0833009F716C03A
:1000F0001BBC1ABC19BC18BC12BADACF812F9927C5
:100100009BBD8ABD19BC18BC82E00FC01BBC1ABCC9
:10011000812F992799BD88BD88E007C0812F992735
:100120009BBD8ABD99BD88BD8AE082BBC1CFFFCF90
:00000001FF
