:1000000012C02BC02AC029C028C027C026C025C0C6
:1000100024C023C022C021C020C01FC01EC01DC0DC
:100020001CC01BC01AC011241FBECFE5D4E0DEBF28
:10003000CDBF10E0A0E6B0E0E0ECF0E102C005903A
:100040000D92A836B107D9F710E0A8E6B0E001C0DC
:100050001D92A836B107E1F701C0D2CFC1E5D4E0C7
:10006000DEBFCDBF81E0898381E08A8389818823D7
:1000700009F480C281E08A8381E08A838A818233A5
:1000800008F038C180E68093380080E090E0A0E27C
:10009000B1E48B839C83AD83BE8320E030E04AE7EC
:1000A00053E46B817C818D819E8107D4DC01CB017F
:1000B00089879A87AB87BC8720E030E040E85FE320
:1000C00069857A858B859C8570D588230CF005C061
:1000D00081E090E098878F8318C020E03FEF4FE7E2
:1000E00057E469857A858B859C85FDD418160CF0BC
:1000F00003C018861F8209C069857A858B859C8517
:100100003AD2DC01CB0198878F838F8198859E87B7
:100110008D878D859E850197F1F79E878D8780E974
:100120008093380080E090E0A0E2B1E489879A876C
:10013000AB87BC8720E030E04AE753E469857A85E5
:100140008B859C85BAD3DC01CB018B839C83AD83EB
:10015000BE8320E030E040E85FE36B817C818D81ED
:100160009E8123D588230CF005C081E090E09E8716
:100170008D8718C020E03FEF4FE757E46B817C810B
:100180008D819E81B0D418160CF003C01E861D868A
:1001900009C06B817C818D819E81EDD1DC01CB0119
:1001A0009E878D878D859E8598878F838F81988583
:1001B0000197F1F798878F8389E08093380080E07A
:1001C00090E0A0E2B1E489879A87AB87BC8720E002
:1001D00030E04AE753E469857A858B859C856DD349
:1001E000DC01CB018B839C83AD83BE8320E030E0B8
:1001F00040E85FE36B817C818D819E81D6D488232A
:100200000CF005C081E090E09E878D8718C020E04B
:100210003FEF4FE757E46B817C818D819E8163D4F2
:1002200018160CF003C01E861D8609C06B817C81E8
:100230008D819E81A0D1DC01CB019E878D878D852C
:100240009E8598878F838F8198850197F1F798878E
:100250008F8386E08093380080E090E0A0E2B1E4F4
:1002600089879A87AB87BC8720E030E04AE753E470
:1002700069857A858B859C8520D3DC01CB018B83B6
:100280009C83AD83BE8320E030E040E85FE36B8178
:100290007C818D819E8189D488230CF005C081E00A
:1002A00090E09E878D8718C020E03FEF4FE757E42E
:1002B0006B817C818D819E8116D418160CF003C051
:1002C0001E861D8609C06B817C818D819E8153D1E4
:1002D000DC01CB019E878D878D859E8598878F83D6
:1002E0008F8198850197F1F798878F838A818F5F37
:1002F0008A83C4CE81E08A8381E08A838A818233C3
:1003000008F0B4CE84E48093380080E090E0A0E26E
:10031000B1E489879A87AB87BC8720E030E04AE761
:1003200053E469857A858B859C85C7D2DC01CB0136
:100330008B839C83AD83BE8320E030E040E85FE3A5
:100340006B817C818D819E8130D488230CF005C027
:1003500081E090E09E878D8718C020E03FEF4FE757
:1003600057E46B817C818D819E81BDD318160CF082
:1003700003C01E861D8609C06B817C818D819E8194
:10038000FAD0DC01CB019E878D878D859E8598876D
:100390008F838F8198850197F1F798878F8388E8FD
:1003A0008093380080E090E0A0E2B1E489879A87EA
:1003B000AB87BC8720E030E04AE753E469857A8563
:1003C0008B859C857AD2DC01CB018B839C83AD83AA
:1003D000BE8320E030E040E85FE36B817C818D816B
:1003E0009E81E3D388230CF005C081E090E09E87D6
:1003F0008D8718C020E03FEF4FE757E46B817C8189
:100400008D819E8170D318160CF003C01E861D8648
:1004100009C06B817C818D819E81ADD0DC01CB01D7
:100420009E878D878D859E8598878F838F81988500
:100430000197F1F798878F8381E18093380080E0FE
:1004400090E0A0E2B1E489879A87AB87BC8720E07F
:1004500030E04AE753E469857A858B859C852DD207
:10046000DC01CB018B839C83AD83BE8320E030E035
:1004700040E85FE36B817C818D819E8196D38823E8
:100480000CF005C081E090E09E878D8718C020E0C9
:100490003FEF4FE757E46B817C818D819E8123D3B1
:1004A00018160CF003C01E861D8609C06B817C8166
:1004B0008D819E8160D0DC01CB019E878D878D85EB
:1004C0009E8598878F838F8198850197F1F798870C
:1004D0008F8382E28093380080E090E0A0E2B1E474
:1004E00089879A87AB87BC8720E030E04AE753E4EE
:1004F00069857A858B859C85E0D1DC01CB018B8376
:100500009C83AD83BE8320E030E040E85FE36B81F5
:100510007C818D819E8149D388230CF005C081E0C8
:1005200090E09E878D8718C020E03FEF4FE757E4AB
:100530006B817C818D819E81D6D218160CF003C010
:100540001E861D8609C06B817C818D819E8113D0A2
:10055000DC01CB019E878D878D859E8598878F8353
:100560008F8198850197F1F798878F838A818F5FB4
:100570008A83C4CEA4C5EF92FF920F931F937B0191
:100580008C0120E030E040E05FE4DED288238CF094
:1005900020E030E040E05FECC801B70134D1DC017D
:1005A000CB01BC01CD0132D36050704080409048F7
:1005B00003C0C801B7012AD31F910F91FF90EF909C
:1005C0000895A0E0B0E0E6EEF2E042C58C017B01C8
:1005D0005A01DC018C91823058F0FB0190819230FD
:1005E00010F4A7010BC1843029F4943009F4A6C09B
:1005F000A80104C19430A9F3923009F4A9C0823053
:1006000081F3F801C280D380FB0162817381F8011C
:100610002481358146815781F70164807580868009
:100620009780C601861B970B97FDD8C080970CF466
:100630006CC06C157D050CF0ADC0662477244301B9
:10064000F8016181F7018181681709F499C0662377
:1006500009F491C0621A730A840A950AA4019301ED
:1006600057FDC0C0F5011182B60119012A017901B7
:100670008A0139014A0108946108710881089108CA
:10068000FFEF6F16FFEF7F06FFEF8F06FFE39F067A
:10069000F0F4A8019701220F331F441F551F1901C1
:1006A0002A01B601615070406B0179018A0139015C
:1006B0004A01089461087108810891088FEF681653
:1006C0008FEF78068FEF88068FE3980610F383E0AC
:1006D000D5018C9357FC64C0F50124833583468390
:1006E000578373836283A50189C06F5F7F4FD401F5
:1006F000C30181709070A070B070969487947794C5
:100700006794682A792A8A2A9B2A6C157D056CF3DE
:1007100011C00894C11CD11CDA01C901817090700C
:10072000A070B0705695479537952795282B392B93
:100730004A2B5B2BC616D70664F382CFF801918152
:10074000FB018181981709F453CF40E650E056C071
:10075000823009F04DCFDA01F80188E001900D9266
:100760008150E1F7F8018181F70191818923F50139
:100770008183A50143C0261937094809590970CF5B
:10078000F5016183B601260D371D481D591D19015C
:100790002A019DCF6B0120E030E040E050E050CFD7
:1007A000D201C101B695A7959795879521E030E0D4
:1007B00040E050E02222332244225522282A392ABE
:1007C0004A2A5B2AF50124823582468257820894A0
:1007D000C11CD11CD382C282A50110C09095819505
:1007E0009F4F24CF81E0F5018183B601509540955C
:1007F000309521953F4F4F4F5F4F37CFCA01E2E110
:10080000CDB7DEB741C4A0E2B0E0E8E0F4E02EC42A
:10081000DC01CB01898F9A8FAB8FBC8F2D8F3E8FE0
:100820004F8F58A3BE016F5F7F4FCE01499623D3F0
:100830008E01075F1F4FB801CE014D961CD3AE014C
:100840004F5E5F4FB801CE010196BBDE2ED2DC01B8
:10085000CB01BC01CD01E4E0A09624C4A0E2B0E04D
:10086000E3E3F4E003C4DC01CB01898F9A8FAB8F03
:10087000BC8F2D8F3E8F4F8F58A3BE016F5F7F4F70
:10088000CE014996F8D28E01075F1F4FB801CE0105
:100890004D96F1D28A8591E089278A87AE014F5E15
:1008A0005F4FB801CE0101968CDEFFD1DC01CB0198
:1008B000BC01CD01E4E0A096F5C3A0E2B0E0E2E621
:1008C000F4E0C6C3DC01CB01898F9A8FAB8FBC8F5C
:1008D0002D8F3E8F4F8F58A3BE016F5F7F4FCE018C
:1008E0004996C9D269E070E06C0F7D1FCE014D962C
:1008F000C2D2FE01319666247724430113012401FC
:100900008981823098F09985923058F420E0918165
:100910008A85981321E02A8769E070E06C0F7D1FBB
:10092000D9C0843059F4923009F45BC020E0918141
:100930008A85981321E02183BF01CCC0943009F44B
:100940004DC0823099F3923009F3ED80FE800F8123
:1009500018852D853E854F855889640153016FE1C7
:1009600070E00CC0220F331F441F551F16950795CA
:10097000F794E7946150704077FD36C0D801C70105
:1009800081709070A070B070892BC9F080E090E009
:10099000220E331E441E551E2216330644065506EB
:1009A00010F481E090E0AA2797FDA095BA2F8A0D58
:1009B0009B1DAC1DBD1D680E791E8A1E9B1EAA0CB8
:1009C000BB1CCC1CDD1C57FFCDCF81E090E0A0E02C
:1009D000B0E0A82AB92ACA2ADB2AC4CF823009F09B
:1009E00095CF60E670E076C0228133818B859C854F
:1009F000280F391F2E5F3F4FA90160E091818A8542
:100A0000981361E06A8B97FE0FC02FC0CA0101974F
:100A1000AC019C01660C771C881C991C57FC41C0DA
:100A2000220C331C441C551C90E0691690E079069A
:100A300090E0890690E4990648F33C8B2B8BD40117
:100A4000C3018F779070A070B07080349105A105BC
:100A5000B10581F16D8A7E8A8F8A988E83E0898BB9
:100A600061E170E06C0F7D1F35C02F5F3F4FA90122
:100A7000D401C30181709070A070B070892B61F0B7
:100A8000569447943794279480E090E0A0E0B0E833
:100A9000282A392A4A2A5B2A96948794779467945D
:100AA000C3CF81E090E0A0E0B0E0682A792A8A2AEA
:100AB0009B2AB6CF67FC05C02114310441045104C0
:100AC00049F280E490E0A0E0B0E0680E791E8A1E52
:100AD0009B1EC0CFCB01E9D0DC01CB01BC01CD0115
:100AE000E2E1A096D1C2A8E1B0E0E8E7F5E0BEC23D
:100AF000DC01CB01898B9A8BAB8BBC8B2D8B3E8B16
:100B00004F8B588FBE016F5F7F4FCE014196B3D19F
:100B10008E01075F1F4FB801CE014596ACD1898188
:100B2000823018F08985823018F42FEF3FEF08C02B
:100B3000B801CE01019619D2282F332727FD309511
:100B4000C901E4E06896AEC2A8E1B0E0E9EAF5E0E8
:100B50008DC2DC01CB01898B9A8BAB8BBC8B2D8B2F
:100B60003E8B4F8B588FBE016F5F7F4FCE014196FA
:100B700082D18E01075F1F4FB801CE0145967BD110
:100B80008981823018F08985823018F42FEF3FEF89
:100B900008C0B801CE010196E8D1282F332727FDE0
:100BA0003095C901E4E068967DC2A8E1B0E0EAEDC5
:100BB000F5E05CC2DC01CB01898B9A8BAB8BBC8BE3
:100BC0002D8B3E8B4F8B588FBE016F5F7F4FCE01B9
:100BD000419651D18E01075F1F4FB801CE01459656
:100BE0004AD18981823018F08985823018F421E059
:100BF00030E008C0B801CE010196B7D1282F3327C5
:100C000027FD3095C901E4E068964CC2ACE0B0E045
:100C1000EBE0F6E02DC2DC01CB0189879A87AB8738
:100C2000BC87BE016F5F7F4FCE01099624D18981B9
:100C3000823011F0823028F460E070E080E090E0D3
:100C400031C0843039F02B813C8137FDF5CF2F3115
:100C500031056CF08A81882329F060E070E080E043
:100C600090E820C06FEF7FEF8FEF9FE71BC08EE112
:100C700090E0821B930B2D813E814F81588504C0EB
:100C800056954795379527958A95D2F78A81882377
:100C900039F050954095309521953F4F4F4F5F4F1C
:100CA000CA01B901E2E02C96FFC1A0E0B0E0EAE59C
:100CB000F6E0D4C1882499245401DC01FC0124818C
:100CC0003581468157818181082F112760E070E0CE
:100CD0008C91823020F46FEF70E04061A4C08430CA
:100CE00009F464C0823009F463C02115310541055F
:100CF000510509F498C0FD0182819381FFEF82388C
:100D00009F070CF050C0A2E8EA2EAFEFFA2EE81AC7
:100D1000F90A8AE1E816F1040CF06BC06B0181E07E
:100D200090E0A0E0B0E00E2C04C0880F991FAA1F2D
:100D3000BB1F0A94D2F70197A109B109822393231B
:100D4000A423B5230097A105B10519F0F1E0CF2E3A
:100D5000D12C04C05695479537952795EA94D2F73C
:100D6000C601AA2797FDA095BA2F282B392B4A2B0D
:100D70005B2BDA01C9018F779070A070B07080345E
:100D80009105A105B105D1F1215C3F4F4F4F5F4F58
:100D90002030E0E03E07E0E04E07E0E45E0708F1C7
:100DA00061E070E01EC0803891053CF06FEF70E0AC
:100DB00020E030E040E050E036C0BC0161587F4F99
:100DC000DA01C9018F779070A070B07080349105FE
:100DD000A105B105D1F0215C3F4F4F4F5F4F57FD4B
:100DE0001BC097E056954795379527959A95D1F76B
:100DF0001AC020E030E040E050E0BBCF27FFC8CF72
:100E0000205C3F4F4F4F5F4FC3CF27FFE8CF205CA1
:100E10003F4F4F4F5F4FE3CF5695479537952795F7
:100E20006F5F7F4FDECF822E932E942F9F778A2D78
:100E30008078A82EA92A962F9795992797958A2D7D
:100E40008F77A82EA92A76956795962F9F778B2D59
:100E50008078B82EB92A902F9795992797958B2D42
:100E60008F77B82EB92AD501C401BC01CD01ECE0C1
:100E7000CDB7DEB70FC1CF93DF93FC01DB0140811B
:100E800051812281622F6F7770E0221F2227221F5B
:100E90009381892F880F822B282F3327991F992719
:100EA000991FED0199832115310541F44115510533
:100EB00061057105E1F482E08C9354C02F3F310548
:100EC00009F441C02F573040FD013383228383E072
:100ED0008C9387E0440F551F661F771F8A95D1F7C3
:100EE0007064ED014C835D836E837F833BC022E899
:100EF0003FEFF901C7E0440F551F661F771FCA95E2
:100F0000D1F783E08C93403080E0580780E0680799
:100F100080E4780778F4440F551F661F771F21502F
:100F20003040F9014030C0E05C07C0E06C07C0E42D
:100F30007C0788F3ED01FB83EA83FD01448355833D
:100F4000668377830FC0411551056105710519F45A
:100F500084E08C9307C064FF03C081E08C93C1CF11
:100F60001C92BFCFDF91CF9108950F931F93CF9322
:100F7000DF93FC01DB018081823018F09C9192307C
:100F800018F461E070E05EC08430C1F0843001F19B
:100F9000943009F447C0823009F44BC0823009F420
:100FA0004EC09230A9F04181ED0189814817B9F016
:100FB000442389F08FEF9FEFBC0144C0943031F798
:100FC000EB018981682F77278181681B71093AC0FD
:100FD0008181882379F781E090E0BC0133C02281D0
:100FE0003381ED018A819B81821793070CF32817C7
:100FF00039079CF00481158126813781FD016481C8
:10100000758186819781601771078207930780F247
:10101000061717072807390778F4442359F281E0A7
:1010200090E0DBCFFD018181882321F281E090E017
:10103000D4CF923009F0B2CF60E070E003C0ED0190
:101040008981F2CFCB01DF91CF911F910F9108954C
:101050002F923F924F925F926F927F928F929F92C8
:10106000AF92BF92CF92DF92EF92FF920F931F93B6
:10107000CF93DF93CDB7DEB7CA1BDB0B0FB6F89467
:10108000DEBF0FBECDBF09942A88398848885F84A7
:101090006E847D848C849B84AA84B984C884DF8018
:1010A000EE80FD800C811B81AA81B981CE0FD11DFC
:1010B0000FB6F894DEBF0FBECDBFED010895FFCF90
:0810C000000000000000000028
:00000001FF
