:1000000032C04CC04BC04AC049C048C047C046C0BF
:1000100045C044C043C042C041C040C03FC03EC0D4
:100020003DC03CC03BC0E3C00CC1D2C00AC1B1C09E
:1000300086C0CEC055C1BCC053C181C051C1B8C07B
:100040007EC0A7C07CC014C14BC14AC149C177C0A2
:1000500047C175C045C10CC143C142C141C121C1A5
:100060003FC16DC0D2C011241FBECFE5D4E0DEBFBA
:10007000CDBF10E0A0E6B0E0E4E5F3E002C00590FB
:100080000D92A036B107D9F710E0A0E6B0E001C0AC
:100090001D92A236B107E1F70FD05AC1B1CF349803
:1000A00087B93D9A379A86B1866086B9369A349B6D
:1000B000FECF16B885B108952F923F924F925F926E
:1000C0006F927F928F929F92AF92BF92CF92DF9268
:1000D000EF92FF920F931F93DF93CF930F92CDB7C1
:1000E000DEB78FE081BB2FEF27BB18BA82BB8FEF43
:1000F00090E09BBD8ABD99BD88BD81EA8FBD81E03E
:100100008EBD20936100109260002AE2F22E1982C7
:1001100091E0492E512C89E0E82E06E4A02E16E04D
:10012000B12EB8E26B2E712CA6E42A2E312CFCE302
:100130008F2E912CEAE0CE2E70E5D72E01C0F42E42
:1001400000E010E00DC0812FAADF833840F0C2012B
:10015000012E02C0880F991F0A94E2F7082B1F5F37
:10016000153088F3402F4F71F41619F400E010E0B9
:10017000EACF842F809590E0A0E0B0E08F7190707E
:10018000A070B070FC0180329105C8F6ED5EFF4FA3
:100190000994C2BA809161008D9DC001112464E66A
:1001A00070E0AFD07BBD6ABD79BD68BD1982C7CF95
:1001B000C2BA809161008D9DC001112464E670E097
:1001C000A0D07BBD6ABD79BD68BD29E02983B7CFCA
:1001D000C2BA809161008D9DC001112464E670E077
:1001E00090D07BBD6ABD79BD68BD33E058C08981C0
:1001F000893011F0E2BA01C0B2BA8091610090E09A
:100200009BBD8ABD99BD88BD9ACFE2BA209161009D
:1002100030E0289DC001299D900D389D900D11243E
:1002200064E670E06ED07BBD6ABD229DC001239D57
:10023000900D329D900D112464E670E062D0CB01E8
:100240005BC0E2BA2091610030E0229DC001239D95
:10025000900D329D900D112464E670E052D07BBD6C
:100260006ABD3595279539BD28BDF3E0F98367CF81
:10027000B2BA8091610090E09C01359527953BBD15
:100280002ABD9C01229DC001239D900D329D900DA1
:10029000112464E670E035D079BD68BD39E039835A
:1002A0004ECFB2BA2091610030E0269DC001279D5B
:1002B000900D369D900D112464E670E022D07BBD38
:1002C0006ABD229DC001239D900D329D900D112489
:1002D00064E670E016D079BD68BD89E089832FCFD0
:1002E000E2BA809161008A9DC001112464E670E049
:1002F00008D0CB017BBD6ABD99BD88BDE3E0E98331
:100300001ECF97FB092E07260AD077FD04D00CD00C
:1003100006D000201AF4709561957F4F0895F6F786
:10032000909581959F4F0895AA1BBB1B51E107C073
:10033000AA1FBB1FA617B70710F0A61BB70B881F75
:10034000991F5A95A9F780959095BC01CD01089504
:04035000F894FFCF4F
:00000001FF
