:1000000012C02BC02AC029C028C027C026C025C0C6
:1000100024C023C022C021C020C01FC01EC01DC0DC
:100020001CC01BC01AC011241FBECFE5D4E0DEBF28
:10003000CDBF10E0A0E6B0E0E6E1F1E002C005903F
:100040000D92A036B107D9F710E0A0E6B0E001C0EC
:100050001D92A036B107E1F74CC0D2CFCF93DF930A
:10006000CDB7DEB721970FB6F894DEBF0FBECDBF78
:10007000898389818093290088E180932A008EE812
:100080008093400021960FB6F894DEBF0FBECDBF1F
:10009000DF91CF910895CF93DF93CDB7DEB721974E
:1000A0000FB6F894DEBF0FBECDBF898380912B00C1
:1000B000992780729070009709F4F8CF8981809316
:1000C0002C0021960FB6F894DEBF0FBECDBFDF9196
:1000D000CF910895CF93DF93CDB7DEB780912B00FA
:1000E00088230CF0FBCF80912C009927DF91CF91D2
:1000F0000895CCE5D4E0DEBFCDBF8FEF8093310013
:100100008FEC8B838B81AADF86E789838FEF8093C7
:06011000320000C0FFCF29
:00000001FF
