:1000000012C02CC02BC02AC029C028C027C026C0BF
:1000100025C024C023C022C021C020C01FC01EC0D4
:100020001DC01CC01BC011241FBECFE5D4E0DEBF25
:10003000CDBF10E0A0E6B0E0E6EAF0E002C0059037
:100040000D92A036B107D9F710E0A0E6B0E001C0EC
:100050001D92A036B107E1F70DD023C0D1CF90BDDE
:1000600089B980E18AB986E880BD08955F9BFECF9B
:100070008CB1089511BA8FEF87BB84BB82BB88BB5C
:1000800010BC83E389B980E18AB986E880BD9FEF1F
:100090005F9BFECF8CB1813611F495BBF9CF15BAB9
:0600A000F7CFF894FFCF3A
:00000001FF
