:1000000012C02BC02AC029C028C027C026C025C0C6
:1000100024C023C022C021C020C01FC01EC01DC0DC
:100020001CC01BC01AC011241FBECFE5D4E0DEBF28
:10003000CDBF10E0A0E6B0E0E8E8F0E002C0059037
:100040000D92A036B107D9F710E0A0E6B0E001C0EC
:100050001D92A036B107E1F701C0D2CFCFE5D4E0C1
:10006000DEBFCDBF86E08093310080913100282F24
:10007000332781E090E0022E02C0880F991F0A9476
:08008000E2F780933400EECF9B
:00000001FF
