:1000000020C03AC039C038C037C036C035C034C04F
:1000100033C032C031C030C02FC02EC02DC02CC064
:100020002BC02AC029C00FC109C11AC107C10BC109
:1000300011C116C108C10BC101C112C111C103C157
:10004000FDC011241FBECFE5D4E0DEBFCDBF10E060
:10005000A0E6B0E0ECEDF2E002C005900D92A23611
:10006000B107D9F710E0A2E6B0E001C01D92A736B3
:10007000B107E1F7CCD031C1C3CF80EF84BB8FEFA4
:1000800081BB87E087BB8AE082BB94E093BF81EAB3
:100090008FBD9EBD86B1836086B93E9A3D9A379AE0
:1000A00016B80895482F82B7242F3327992777272A
:1000B000621B730B6F5F7F4F821B930BE7D0480F60
:1000C000842F9927089560EA81E0ECDF2091600099
:1000D000482F55278135B0F4822F992799BD88BDC7
:1000E00024E630E0241B350BAC01249FC001259F82
:1000F000900D349F900D112464E670E0C7D07BBD55
:100100006ABD089584EB90E0841B950B3327AC0106
:10011000429FC001439F900D529F900D112464E6B1
:1001200070E0B4D079BD68BD3BBD2ABD0895809113
:10013000600099279BBD8ABD99BD88BD61E080E0C4
:10014000B1DF882311F089E001C086E082BB20E0A6
:1001500005C080EA9FE00197F1F72F5F2833C8F3CD
:100160002093660012BA19BC18BC88B599B59BBD1E
:100170008ABD089597B1907F97B997B1982B97B999
:10018000369A349BFECF85B199270895379A1092FD
:1001900066001092630016C0EDDF8D3370F081E0D1
:1001A00090E00090630002C0880F991F0A94E2F764
:1001B00020916600282B20936600809163008F5F5A
:1001C0008093630080916300823030F382E014C03A
:1001D000D1DF813570F081E090E00090630002C0D3
:1001E000880F991F0A94E2F720916600282B20932C
:1001F0006600809163008F5F80936300809163004D
:10020000843030F316B88091660099270895CFE5C1
:10021000D4E0DEBFCDBF31DFB9DF809580936400CD
:100220008F70809365009927AA27BB27FC0131971F
:10023000EE30F105A8F4ED5EFF4F099410926200D4
:100240008AE082BB16C01092620085E0FACF6FDFB1
:100250008AE002C06CDF85E082BB1092620009C0B8
:1002600080916200882311F4C09A2DDF81E0809391
:10027000620080916200882379F6C09880916000C6
:1002800099279BBD8ABD99BD88BDC6CF97FB092E16
:1002900007260AD077FD04D00CD006D000201AF42F
:1002A000709561957F4F0895F6F7909581959F4FD2
:1002B0000895AA1BBB1B51E107C0AA1FBB1FA617AD
:1002C000B70710F0A61BB70B881F991F5A95A9F7FF
:0C02D00080959095BC01CD010895FFCFF2
:0202DC00A00080
:00000001FF
