:1000000012C02CC02BC02AC029C028C027C026C0BF
:1000100025C024C023C022C021C020C01FC01EC0D4
:100020001DC01CC01BC011241FBECFE5D4E0DEBF25
:10003000CDBF10E0A0E6B0E0EEE7F1E002C0059031
:100040000D92A036B107D9F710E0A0E6B0E001C0EC
:100050001D92A036B107E1F729D08FC0D1CF8FE034
:1000600081BB14BA87E087BB80E288BB089586B164
:10007000836086B93E9A3D9A379A369A089581EA06
:100080008FBD84E190E09BBD8ABD84E08EBD089564
:10009000379A97B1907F97B997B1982B97B9369ABD
:1000A000349BFECF86B116B885B108958FE081BB31
:1000B00014BA87E087BB80E288BB86B1836086B9CB
:1000C0003E9A3D9A379A369A81EA8FBD84E190E054
:1000D0009BBD8ABD84E08EBD379A87B1807F87B98A
:1000E00087B1856087B9369A349BFECF86B116B842
:1000F00085B1282F30E062E058E04AE0379A87B1B6
:10010000807F87B987B187B9369A349BFECF86B195
:1001100016B885B190E0853608F091E0379A87B13E
:10012000807F87B9389A369A349BFECF86B116B84D
:1001300085B1853608F09E5F913069F0913028F0E6
:10014000923079F09330D1F612C01BBC1ABC19BCA6
:1001500018BC12BAD3CF3BBD2ABD19BC18BC62BBB8
:10016000CDCF1BBC1ABC39BD28BD52BBC7CF3BBDD0
:0E0170002ABD39BD28BD42BBC1CFF894FFCFD8
:00000001FF
